{
  "contractName": "DappState",
  "abi": [
    {
      "inputs": [
        {
          "internalType": "contract VulcanCore",
          "name": "vulcanCoreRef",
          "type": "address"
        }
      ],
      "stateMutability": "nonpayable",
      "type": "constructor"
    },
    {
      "anonymous": false,
      "inputs": [
        {
          "indexed": true,
          "internalType": "address",
          "name": "owner",
          "type": "address"
        },
        {
          "indexed": true,
          "internalType": "address",
          "name": "spender",
          "type": "address"
        },
        {
          "indexed": false,
          "internalType": "uint256",
          "name": "value",
          "type": "uint256"
        }
      ],
      "name": "Approval",
      "type": "event"
    },
    {
      "anonymous": false,
      "inputs": [
        {
          "indexed": true,
          "internalType": "address",
          "name": "from",
          "type": "address"
        },
        {
          "indexed": true,
          "internalType": "address",
          "name": "to",
          "type": "address"
        },
        {
          "indexed": false,
          "internalType": "uint256",
          "name": "value",
          "type": "uint256"
        }
      ],
      "name": "Transfer",
      "type": "event"
    },
    {
      "inputs": [],
      "name": "UNIT_MULTIPLIER",
      "outputs": [
        {
          "internalType": "uint256",
          "name": "",
          "type": "uint256"
        }
      ],
      "stateMutability": "view",
      "type": "function",
      "constant": true
    },
    {
      "inputs": [],
      "name": "decimals",
      "outputs": [
        {
          "internalType": "uint256",
          "name": "",
          "type": "uint256"
        }
      ],
      "stateMutability": "view",
      "type": "function",
      "constant": true
    },
    {
      "inputs": [],
      "name": "initialSupply",
      "outputs": [
        {
          "internalType": "uint256",
          "name": "",
          "type": "uint256"
        }
      ],
      "stateMutability": "view",
      "type": "function",
      "constant": true
    },
    {
      "inputs": [],
      "name": "name",
      "outputs": [
        {
          "internalType": "string",
          "name": "",
          "type": "string"
        }
      ],
      "stateMutability": "view",
      "type": "function",
      "constant": true
    },
    {
      "inputs": [],
      "name": "symbol",
      "outputs": [
        {
          "internalType": "string",
          "name": "",
          "type": "string"
        }
      ],
      "stateMutability": "view",
      "type": "function",
      "constant": true
    },
    {
      "inputs": [],
      "name": "total",
      "outputs": [
        {
          "internalType": "uint256",
          "name": "",
          "type": "uint256"
        }
      ],
      "stateMutability": "view",
      "type": "function",
      "constant": true
    },
    {
      "inputs": [],
      "name": "vulcanCore",
      "outputs": [
        {
          "internalType": "contract VulcanCore",
          "name": "",
          "type": "address"
        }
      ],
      "stateMutability": "view",
      "type": "function",
      "constant": true
    },
    {
      "inputs": [
        {
          "internalType": "address",
          "name": "account",
          "type": "address"
        }
      ],
      "name": "isContractAdmin",
      "outputs": [
        {
          "internalType": "bool",
          "name": "",
          "type": "bool"
        }
      ],
      "stateMutability": "view",
      "type": "function",
      "constant": true
    },
    {
      "inputs": [
        {
          "internalType": "address",
          "name": "account",
          "type": "address"
        }
      ],
      "name": "addContractAdmin",
      "outputs": [],
      "stateMutability": "nonpayable",
      "type": "function"
    },
    {
      "inputs": [
        {
          "internalType": "address",
          "name": "account",
          "type": "address"
        }
      ],
      "name": "removeContractAdmin",
      "outputs": [],
      "stateMutability": "nonpayable",
      "type": "function"
    },
    {
      "inputs": [
        {
          "internalType": "address",
          "name": "account",
          "type": "address"
        }
      ],
      "name": "removeLastContractAdmin",
      "outputs": [],
      "stateMutability": "nonpayable",
      "type": "function"
    },
    {
      "inputs": [],
      "name": "totalSupply",
      "outputs": [
        {
          "internalType": "uint256",
          "name": "",
          "type": "uint256"
        }
      ],
      "stateMutability": "view",
      "type": "function",
      "constant": true
    },
    {
      "inputs": [],
      "name": "balance",
      "outputs": [
        {
          "internalType": "uint256",
          "name": "",
          "type": "uint256"
        }
      ],
      "stateMutability": "view",
      "type": "function",
      "constant": true
    },
    {
      "inputs": [
        {
          "internalType": "address",
          "name": "owner",
          "type": "address"
        }
      ],
      "name": "balanceOf",
      "outputs": [
        {
          "internalType": "uint256",
          "name": "",
          "type": "uint256"
        }
      ],
      "stateMutability": "view",
      "type": "function",
      "constant": true
    },
    {
      "inputs": [
        {
          "internalType": "address",
          "name": "to",
          "type": "address"
        },
        {
          "internalType": "uint256",
          "name": "value",
          "type": "uint256"
        }
      ],
      "name": "transfer",
      "outputs": [
        {
          "internalType": "bool",
          "name": "",
          "type": "bool"
        }
      ],
      "stateMutability": "nonpayable",
      "type": "function"
    },
    {
      "inputs": [
        {
          "internalType": "address",
          "name": "from",
          "type": "address"
        },
        {
          "internalType": "address",
          "name": "to",
          "type": "address"
        },
        {
          "internalType": "uint256",
          "name": "value",
          "type": "uint256"
        }
      ],
      "name": "transferFrom",
      "outputs": [
        {
          "internalType": "bool",
          "name": "",
          "type": "bool"
        }
      ],
      "stateMutability": "nonpayable",
      "type": "function"
    },
    {
      "inputs": [
        {
          "internalType": "address",
          "name": "owner",
          "type": "address"
        },
        {
          "internalType": "address",
          "name": "spender",
          "type": "address"
        }
      ],
      "name": "allowance",
      "outputs": [
        {
          "internalType": "uint256",
          "name": "",
          "type": "uint256"
        }
      ],
      "stateMutability": "view",
      "type": "function",
      "constant": true
    },
    {
      "inputs": [
        {
          "internalType": "address",
          "name": "spender",
          "type": "address"
        },
        {
          "internalType": "uint256",
          "name": "value",
          "type": "uint256"
        }
      ],
      "name": "approve",
      "outputs": [
        {
          "internalType": "bool",
          "name": "",
          "type": "bool"
        }
      ],
      "stateMutability": "nonpayable",
      "type": "function"
    },
    {
      "inputs": [],
      "name": "getContractOwner",
      "outputs": [
        {
          "internalType": "address",
          "name": "",
          "type": "address"
        }
      ],
      "stateMutability": "view",
      "type": "function",
      "constant": true
    },
    {
      "inputs": [
        {
          "internalType": "uint256",
          "name": "increment",
          "type": "uint256"
        }
      ],
      "name": "incrementCounter",
      "outputs": [],
      "stateMutability": "nonpayable",
      "type": "function"
    },
    {
      "inputs": [],
      "name": "getCounter",
      "outputs": [
        {
          "internalType": "uint256",
          "name": "",
          "type": "uint256"
        }
      ],
      "stateMutability": "view",
      "type": "function",
      "constant": true
    }
  ],
  "bytecode": "0x608060405260016002553480156200001657600080fd5b506040516200247c3803806200247c83398181016040528101906200003c91906200031d565b80600160006101000a81548173ffffffffffffffffffffffffffffffffffffffff021916908373ffffffffffffffffffffffffffffffffffffffff160217905550336000806101000a81548173ffffffffffffffffffffffffffffffffffffffff021916908373ffffffffffffffffffffffffffffffffffffffff1602179055506001600360003373ffffffffffffffffffffffffffffffffffffffff1673ffffffffffffffffffffffffffffffffffffffff168152602001908152602001600020819055506040518060400160405280600381526020017f426f62000000000000000000000000000000000000000000000000000000000081525060049081620001489190620005c9565b506040518060400160405280600381526020017f424f420000000000000000000000000000000000000000000000000000000000815250600590816200018f9190620005c9565b506012600681905550600654600a620001a9919062000833565b600b8190555060006402540be4009050620001d0600b54826200024e60201b90919060201c565b600981905550600954600a81905550600954600760008060009054906101000a900473ffffffffffffffffffffffffffffffffffffffff1673ffffffffffffffffffffffffffffffffffffffff1673ffffffffffffffffffffffffffffffffffffffff16815260200190815260200160002081905550505062000965565b600080830362000262576000905062000299565b6000828462000272919062000884565b9050828482620002839190620008fe565b1462000294576200029362000936565b5b809150505b92915050565b600080fd5b600073ffffffffffffffffffffffffffffffffffffffff82169050919050565b6000620002d182620002a4565b9050919050565b6000620002e582620002c4565b9050919050565b620002f781620002d8565b81146200030357600080fd5b50565b6000815190506200031781620002ec565b92915050565b6000602082840312156200033657620003356200029f565b5b6000620003468482850162000306565b91505092915050565b600081519050919050565b7f4e487b7100000000000000000000000000000000000000000000000000000000600052604160045260246000fd5b7f4e487b7100000000000000000000000000000000000000000000000000000000600052602260045260246000fd5b60006002820490506001821680620003d157607f821691505b602082108103620003e757620003e662000389565b5b50919050565b60008190508160005260206000209050919050565b60006020601f8301049050919050565b600082821b905092915050565b600060088302620004517fffffffffffffffffffffffffffffffffffffffffffffffffffffffffffffffff8262000412565b6200045d868362000412565b95508019841693508086168417925050509392505050565b6000819050919050565b6000819050919050565b6000620004aa620004a46200049e8462000475565b6200047f565b62000475565b9050919050565b6000819050919050565b620004c68362000489565b620004de620004d582620004b1565b8484546200041f565b825550505050565b600090565b620004f5620004e6565b62000502818484620004bb565b505050565b5b818110156200052a576200051e600082620004eb565b60018101905062000508565b5050565b601f82111562000579576200054381620003ed565b6200054e8462000402565b810160208510156200055e578190505b620005766200056d8562000402565b83018262000507565b50505b505050565b600082821c905092915050565b60006200059e600019846008026200057e565b1980831691505092915050565b6000620005b983836200058b565b9150826002028217905092915050565b620005d4826200034f565b67ffffffffffffffff811115620005f057620005ef6200035a565b5b620005fc8254620003b8565b620006098282856200052e565b600060209050601f8311600181146200064157600084156200062c578287015190505b620006388582620005ab565b865550620006a8565b601f1984166200065186620003ed565b60005b828110156200067b5784890151825560018201915060208501945060208101905062000654565b868310156200069b578489015162000697601f8916826200058b565b8355505b6001600288020188555050505b505050505050565b7f4e487b7100000000000000000000000000000000000000000000000000000000600052601160045260246000fd5b60008160011c9050919050565b6000808291508390505b60018511156200073e57808604811115620007165762000715620006b0565b5b6001851615620007265780820291505b80810290506200073685620006df565b9450620006f6565b94509492505050565b6000826200075957600190506200082c565b816200076957600090506200082c565b81600181146200078257600281146200078d57620007c3565b60019150506200082c565b60ff841115620007a257620007a1620006b0565b5b8360020a915084821115620007bc57620007bb620006b0565b5b506200082c565b5060208310610133831016604e8410600b8410161715620007fd5782820a905083811115620007f757620007f6620006b0565b5b6200082c565b6200080c8484846001620006ec565b92509050818404811115620008265762000825620006b0565b5b81810290505b9392505050565b6000620008408262000475565b91506200084d8362000475565b92506200087c7fffffffffffffffffffffffffffffffffffffffffffffffffffffffffffffffff848462000747565b905092915050565b6000620008918262000475565b91506200089e8362000475565b9250828202620008ae8162000475565b91508282048414831517620008c857620008c7620006b0565b5b5092915050565b7f4e487b7100000000000000000000000000000000000000000000000000000000600052601260045260246000fd5b60006200090b8262000475565b9150620009188362000475565b9250826200092b576200092a620008cf565b5b828204905092915050565b7f4e487b7100000000000000000000000000000000000000000000000000000000600052600160045260246000fd5b611b0780620009756000396000f3fe608060405234801561001057600080fd5b50600436106101375760003560e01c80636abbb3b4116100b8578063a90132291161007c578063a90132291461032e578063a9059cbb1461034a578063b69ef8a81461037a578063dd62ed3e14610398578063fc540cd3146103c8578063fc81a12a146103e657610137565b80636abbb3b41461028a57806370a08231146102a65780638ada066e146102d657806395d89b41146102f4578063a417a5641461031257610137565b80632ddbd13a116100ff5780632ddbd13a146101f6578063313ce56714610214578063378dc3dc14610232578063442890d5146102505780634743909e1461026e57610137565b806306fdde031461013c578063095ea7b31461015a5780631485934e1461018a57806318160ddd146101a857806323b872dd146101c6575b600080fd5b610144610416565b604051610151919061137a565b60405180910390f35b610174600480360381019061016f9190611435565b6104a4565b6040516101819190611490565b60405180910390f35b610192610596565b60405161019f919061150a565b60405180910390f35b6101b06105bc565b6040516101bd9190611534565b60405180910390f35b6101e060048036038101906101db919061154f565b6105c6565b6040516101ed9190611490565b60405180910390f35b6101fe6109b8565b60405161020b9190611534565b60405180910390f35b61021c6109be565b6040516102299190611534565b60405180910390f35b61023a6109c4565b6040516102479190611534565b60405180910390f35b6102586109ca565b60405161026591906115b1565b60405180910390f35b610288600480360381019061028391906115cc565b6109f3565b005b6102a4600480360381019061029f91906115f9565b610b4d565b005b6102c060048036038101906102bb91906115cc565b610bba565b6040516102cd9190611534565b60405180910390f35b6102de610c03565b6040516102eb9190611534565b60405180910390f35b6102fc610c0d565b604051610309919061137a565b60405180910390f35b61032c600480360381019061032791906115cc565b610c9b565b005b610348600480360381019061034391906115cc565b610df5565b005b610364600480360381019061035f9190611435565b610f8e565b6040516103719190611490565b60405180910390f35b6103826111ae565b60405161038f9190611534565b60405180910390f35b6103b260048036038101906103ad9190611626565b6111be565b6040516103bf9190611534565b60405180910390f35b6103d0611245565b6040516103dd9190611534565b60405180910390f35b61040060048036038101906103fb91906115cc565b61124b565b60405161040d9190611490565b60405180910390f35b6004805461042390611695565b80601f016020809104026020016040519081016040528092919081815260200182805461044f90611695565b801561049c5780601f106104715761010080835404028352916020019161049c565b820191906000526020600020905b81548152906001019060200180831161047f57829003601f168201915b505050505081565b600081600860003373ffffffffffffffffffffffffffffffffffffffff1673ffffffffffffffffffffffffffffffffffffffff16815260200190815260200160002060008573ffffffffffffffffffffffffffffffffffffffff1673ffffffffffffffffffffffffffffffffffffffff168152602001908152602001600020819055508273ffffffffffffffffffffffffffffffffffffffff163373ffffffffffffffffffffffffffffffffffffffff167f8c5be1e5ebec7d5bd14f71427d1e84f3dd0314c0f7b2291e5b200ac8c7c3b925846040516105849190611534565b60405180910390a36001905092915050565b600160009054906101000a900473ffffffffffffffffffffffffffffffffffffffff1681565b6000600954905090565b60008073ffffffffffffffffffffffffffffffffffffffff168473ffffffffffffffffffffffffffffffffffffffff160361060057600080fd5b600860008573ffffffffffffffffffffffffffffffffffffffff1673ffffffffffffffffffffffffffffffffffffffff16815260200190815260200160002060003373ffffffffffffffffffffffffffffffffffffffff1673ffffffffffffffffffffffffffffffffffffffff1681526020019081526020016000205482111561068957600080fd5b61069284610bba565b82111561069e57600080fd5b600073ffffffffffffffffffffffffffffffffffffffff168373ffffffffffffffffffffffffffffffffffffffff16036106d757600080fd5b8273ffffffffffffffffffffffffffffffffffffffff168473ffffffffffffffffffffffffffffffffffffffff160361070f57600080fd5b61076182600760008773ffffffffffffffffffffffffffffffffffffffff1673ffffffffffffffffffffffffffffffffffffffff1681526020019081526020016000205461129790919063ffffffff16565b600760008673ffffffffffffffffffffffffffffffffffffffff1673ffffffffffffffffffffffffffffffffffffffff168152602001908152602001600020819055506107f682600760008673ffffffffffffffffffffffffffffffffffffffff1673ffffffffffffffffffffffffffffffffffffffff168152602001908152602001600020546112be90919063ffffffff16565b600760008573ffffffffffffffffffffffffffffffffffffffff1673ffffffffffffffffffffffffffffffffffffffff168152602001908152602001600020819055506108c882600860008773ffffffffffffffffffffffffffffffffffffffff1673ffffffffffffffffffffffffffffffffffffffff16815260200190815260200160002060003373ffffffffffffffffffffffffffffffffffffffff1673ffffffffffffffffffffffffffffffffffffffff1681526020019081526020016000205461129790919063ffffffff16565b600860008673ffffffffffffffffffffffffffffffffffffffff1673ffffffffffffffffffffffffffffffffffffffff16815260200190815260200160002060003373ffffffffffffffffffffffffffffffffffffffff1673ffffffffffffffffffffffffffffffffffffffff168152602001908152602001600020819055508273ffffffffffffffffffffffffffffffffffffffff168473ffffffffffffffffffffffffffffffffffffffff167fddf252ad1be2c89b69c2b068fc378daa952ba7f163c4a11628f55a4df523b3ef846040516109a59190611534565b60405180910390a3600190509392505050565b60095481565b60065481565b600a5481565b60008060009054906101000a900473ffffffffffffffffffffffffffffffffffffffff16905090565b6109fc3361124b565b610a3b576040517f08c379a0000000000000000000000000000000000000000000000000000000008152600401610a3290611738565b60405180910390fd5b600073ffffffffffffffffffffffffffffffffffffffff168173ffffffffffffffffffffffffffffffffffffffff1603610aaa576040517f08c379a0000000000000000000000000000000000000000000000000000000008152600401610aa1906117a4565b60405180910390fd5b600280541015610aef576040517f08c379a0000000000000000000000000000000000000000000000000000000008152600401610ae690611810565b60405180910390fd5b600360008273ffffffffffffffffffffffffffffffffffffffff1673ffffffffffffffffffffffffffffffffffffffff1681526020019081526020016000206000905560026000815480929190610b459061185f565b919050555050565b600081118015610b5d5750600a81105b610b9c576040517f08c379a0000000000000000000000000000000000000000000000000000000008152600401610b93906118d4565b60405180910390fd5b610bb181600c546112be90919063ffffffff16565b600c8190555050565b6000600760008373ffffffffffffffffffffffffffffffffffffffff1673ffffffffffffffffffffffffffffffffffffffff168152602001908152602001600020549050919050565b6000600c54905090565b60058054610c1a90611695565b80601f0160208091040260200160405190810160405280929190818152602001828054610c4690611695565b8015610c935780601f10610c6857610100808354040283529160200191610c93565b820191906000526020600020905b815481529060010190602001808311610c7657829003601f168201915b505050505081565b610ca43361124b565b610ce3576040517f08c379a0000000000000000000000000000000000000000000000000000000008152600401610cda90611738565b60405180910390fd5b600073ffffffffffffffffffffffffffffffffffffffff168173ffffffffffffffffffffffffffffffffffffffff1603610d52576040517f08c379a0000000000000000000000000000000000000000000000000000000008152600401610d49906117a4565b60405180910390fd5b600160025414610d97576040517f08c379a0000000000000000000000000000000000000000000000000000000008152600401610d8e90611940565b60405180910390fd5b600360008273ffffffffffffffffffffffffffffffffffffffff1673ffffffffffffffffffffffffffffffffffffffff1681526020019081526020016000206000905560026000815480929190610ded9061185f565b919050555050565b610dfe3361124b565b610e3d576040517f08c379a0000000000000000000000000000000000000000000000000000000008152600401610e3490611738565b60405180910390fd5b600073ffffffffffffffffffffffffffffffffffffffff168173ffffffffffffffffffffffffffffffffffffffff1603610eac576040517f08c379a0000000000000000000000000000000000000000000000000000000008152600401610ea3906117a4565b60405180910390fd5b6001600360008373ffffffffffffffffffffffffffffffffffffffff1673ffffffffffffffffffffffffffffffffffffffff1681526020019081526020016000205410610f2e576040517f08c379a0000000000000000000000000000000000000000000000000000000008152600401610f25906119d2565b60405180910390fd5b6001600360008373ffffffffffffffffffffffffffffffffffffffff1673ffffffffffffffffffffffffffffffffffffffff1681526020019081526020016000208190555060026000815480929190610f86906119f2565b919050555050565b60008073ffffffffffffffffffffffffffffffffffffffff168373ffffffffffffffffffffffffffffffffffffffff1603610fc857600080fd5b3373ffffffffffffffffffffffffffffffffffffffff168373ffffffffffffffffffffffffffffffffffffffff160361100057600080fd5b61100933610bba565b82111561101557600080fd5b61106782600760003373ffffffffffffffffffffffffffffffffffffffff1673ffffffffffffffffffffffffffffffffffffffff1681526020019081526020016000205461129790919063ffffffff16565b600760003373ffffffffffffffffffffffffffffffffffffffff1673ffffffffffffffffffffffffffffffffffffffff168152602001908152602001600020819055506110fc82600760008673ffffffffffffffffffffffffffffffffffffffff1673ffffffffffffffffffffffffffffffffffffffff168152602001908152602001600020546112be90919063ffffffff16565b600760008573ffffffffffffffffffffffffffffffffffffffff1673ffffffffffffffffffffffffffffffffffffffff168152602001908152602001600020819055508273ffffffffffffffffffffffffffffffffffffffff163373ffffffffffffffffffffffffffffffffffffffff167fddf252ad1be2c89b69c2b068fc378daa952ba7f163c4a11628f55a4df523b3ef8460405161119c9190611534565b60405180910390a36001905092915050565b60006111b933610bba565b905090565b6000600860008473ffffffffffffffffffffffffffffffffffffffff1673ffffffffffffffffffffffffffffffffffffffff16815260200190815260200160002060008373ffffffffffffffffffffffffffffffffffffffff1673ffffffffffffffffffffffffffffffffffffffff16815260200190815260200160002054905092915050565b600b5481565b60006001600360008473ffffffffffffffffffffffffffffffffffffffff1673ffffffffffffffffffffffffffffffffffffffff16815260200190815260200160002054149050919050565b6000828211156112aa576112a9611a3a565b5b81836112b69190611a69565b905092915050565b60008082846112cd9190611a9d565b9050838110156112e0576112df611a3a565b5b8091505092915050565b600081519050919050565b600082825260208201905092915050565b60005b83811015611324578082015181840152602081019050611309565b60008484015250505050565b6000601f19601f8301169050919050565b600061134c826112ea565b61135681856112f5565b9350611366818560208601611306565b61136f81611330565b840191505092915050565b600060208201905081810360008301526113948184611341565b905092915050565b600080fd5b600073ffffffffffffffffffffffffffffffffffffffff82169050919050565b60006113cc826113a1565b9050919050565b6113dc816113c1565b81146113e757600080fd5b50565b6000813590506113f9816113d3565b92915050565b6000819050919050565b611412816113ff565b811461141d57600080fd5b50565b60008135905061142f81611409565b92915050565b6000806040838503121561144c5761144b61139c565b5b600061145a858286016113ea565b925050602061146b85828601611420565b9150509250929050565b60008115159050919050565b61148a81611475565b82525050565b60006020820190506114a56000830184611481565b92915050565b6000819050919050565b60006114d06114cb6114c6846113a1565b6114ab565b6113a1565b9050919050565b60006114e2826114b5565b9050919050565b60006114f4826114d7565b9050919050565b611504816114e9565b82525050565b600060208201905061151f60008301846114fb565b92915050565b61152e816113ff565b82525050565b60006020820190506115496000830184611525565b92915050565b6000806000606084860312156115685761156761139c565b5b6000611576868287016113ea565b9350506020611587868287016113ea565b925050604061159886828701611420565b9150509250925092565b6115ab816113c1565b82525050565b60006020820190506115c660008301846115a2565b92915050565b6000602082840312156115e2576115e161139c565b5b60006115f0848285016113ea565b91505092915050565b60006020828403121561160f5761160e61139c565b5b600061161d84828501611420565b91505092915050565b6000806040838503121561163d5761163c61139c565b5b600061164b858286016113ea565b925050602061165c858286016113ea565b9150509250929050565b7f4e487b7100000000000000000000000000000000000000000000000000000000600052602260045260246000fd5b600060028204905060018216806116ad57607f821691505b6020821081036116c0576116bf611666565b5b50919050565b7f43616c6c6572206973206e6f74206120636f6e74726163742061646d696e697360008201527f747261746f720000000000000000000000000000000000000000000000000000602082015250565b60006117226026836112f5565b915061172d826116c6565b604082019050919050565b6000602082019050818103600083015261175181611715565b9050919050565b7f496e76616c696420616464726573730000000000000000000000000000000000600082015250565b600061178e600f836112f5565b915061179982611758565b602082019050919050565b600060208201905081810360008301526117bd81611781565b9050919050565b7f43616e6e6f742072656d6f7665206c6173742061646d696e0000000000000000600082015250565b60006117fa6018836112f5565b9150611805826117c4565b602082019050919050565b60006020820190508181036000830152611829816117ed565b9050919050565b7f4e487b7100000000000000000000000000000000000000000000000000000000600052601160045260246000fd5b600061186a826113ff565b91506000820361187d5761187c611830565b5b600182039050919050565b7f496e76616c696420696e6372656d656e742076616c7565000000000000000000600082015250565b60006118be6017836112f5565b91506118c982611888565b602082019050919050565b600060208201905081810360008301526118ed816118b1565b9050919050565b7f4e6f7420746865206c6173742061646d696e0000000000000000000000000000600082015250565b600061192a6012836112f5565b9150611935826118f4565b602082019050919050565b600060208201905081810360008301526119598161191d565b9050919050565b7f4163636f756e7420697320616c726561647920616e2061646d696e697374726160008201527f746f720000000000000000000000000000000000000000000000000000000000602082015250565b60006119bc6023836112f5565b91506119c782611960565b604082019050919050565b600060208201905081810360008301526119eb816119af565b9050919050565b60006119fd826113ff565b91507fffffffffffffffffffffffffffffffffffffffffffffffffffffffffffffffff8203611a2f57611a2e611830565b5b600182019050919050565b7f4e487b7100000000000000000000000000000000000000000000000000000000600052600160045260246000fd5b6000611a74826113ff565b9150611a7f836113ff565b9250828203905081811115611a9757611a96611830565b5b92915050565b6000611aa8826113ff565b9150611ab3836113ff565b9250828201905080821115611acb57611aca611830565b5b9291505056fea26469706673582212207965933e09667df0d6e139b937659d275b6081c835efb8ed236ded9997624b9164736f6c63430008130033",
  "immutableReferences": {},
  "source": "// SPDX-License-Identifier: MIT\npragma solidity ^0.8.0;\npragma experimental ABIEncoderV2;\n\nimport \"./interfaces/IDappState.sol\";\nimport \"./DappLib.sol\";\nimport \"./VulcanCore.sol\";\n\n/********************************************************************************************/\n/* This contract is auto-generated based on your choices in DappStarter. You can make       */\n/* changes, but be aware that generating a new DappStarter project will require you to      */\n/* merge changes. One approach you can take is to make changes in Dapp.sol and have it      */\n/* call into this one. You can maintain all your data in this contract and your app logic   */\n/* in Dapp.sol. This lets you update and deploy Dapp.sol with revised code and still        */\n/* continue using this one.                                                                 */\n/********************************************************************************************/\n\ncontract DappState is IDappState \n///+interfaces\n{\n    // Allow DappLib(SafeMath) functions to be called for all uint256 types\n    // (similar to \"prototype\" in Javascript)\n    using DappLib for uint256; \n\n\n/*@@@@@@@@@@@@@@@@@@@@@@@@@@@@@@@@@@@@@@@@@@@@@@@@@@@@@@@@@@@@@@@@@@@@@@@@@@@@@@@@@@@@@@@@@@*/\n/*@@@@@@@@@@@@@@@@@@@@@@@@@@@@@@@@@@@@@@@@ S T A T E @@@@@@@@@@@@@@@@@@@@@@@@@@@@@@@@@@@@@@@*/\n/*@@@@@@@@@@@@@@@@@@@@@@@@@@@@@@@@@@@@@@@@@@@@@@@@@@@@@@@@@@@@@@@@@@@@@@@@@@@@@@@@@@@@@@@@@@*/\n\n    // Account used to deploy contract\n    address private contractOwner;                  \n\n    VulcanCore public vulcanCore;\n/*>>>>>>>>>>>>>>>>>>>>>>>>>>> ACCESS CONTROL: ADMINISTRATOR ROLE  <<<<<<<<<<<<<<<<<<<<<<<<<<*/\n    // Track authorized admins count to prevent lockout\n    uint256 private authorizedAdminsCount = 1;                      \n\n    // Admins authorized to manage contract\n    mapping(address => uint256) private authorizedAdmins;                      \n\n/*>>>>>>>>>>>>>>>>>>>>>>>>>>>>>> ASSET VALUE TRACKING: TOKEN  <<<<<<<<<<<<<<<<<<<<<<<<<<<<<<*/\n    string public name;\n    string public symbol;\n    uint256 public decimals;\n    \n    // Token balance for each address\n    mapping(address => uint256) balances;              \n\n    // Approval granted to transfer tokens by one address to another address                 \n    mapping (address => mapping (address => uint256)) internal allowed; \n\n    // Tokens currently in circulation (you'll need to update this if you create more tokens)\n    uint256 public total;                  \n\n    // Tokens created when contract was deployed                             \n    uint256 public initialSupply;         \n\n    // Multiplier to convert to smallest unit                              \n    uint256 public UNIT_MULTIPLIER;                                     \n\n/*@@@@@@@@@@@@@@@@@@@@@@@@@@@@@@@@@@@@@@@@@@@@@@@@@@@@@@@@@@@@@@@@@@@@@@@@@@@@@@@@@@@@@@@@@@*/\n/*@@@@@@@@@@@@@@@@@@@@@@@@@@@@@@@@@@ C O N S T R U C T O R @@@@@@@@@@@@@@@@@@@@@@@@@@@@@@@@@*/\n/*@@@@@@@@@@@@@@@@@@@@@@@@@@@@@@@@@@@@@@@@@@@@@@@@@@@@@@@@@@@@@@@@@@@@@@@@@@@@@@@@@@@@@@@@@@*/\n\n    constructor(VulcanCore vulcanCoreRef)  \n    {\n        vulcanCore = vulcanCoreRef;\n        contractOwner = msg.sender;       \n\n/*>>>>>>>>>>>>>>>>>>>>>>>>>>> ACCESS CONTROL: ADMINISTRATOR ROLE  <<<<<<<<<<<<<<<<<<<<<<<<<<*/\n        // Add account that deployed contract as an authorized admin\n        authorizedAdmins[msg.sender] = 1;       \n\n/*>>>>>>>>>>>>>>>>>>>>>>>>>>>>>> ASSET VALUE TRACKING: TOKEN  <<<<<<<<<<<<<<<<<<<<<<<<<<<<<<*/\n        name = \"Bob\";             \n        symbol = \"BOB\";           \n        decimals = 18;     \n\n        // Multiplier to convert to smallest unit\n        UNIT_MULTIPLIER = 10 ** uint256(decimals); \n\n        uint256 supply = 10000000000;       \n\n        // Convert supply to smallest unit\n        total = supply.mul(UNIT_MULTIPLIER);    \n        initialSupply = total;\n\n        // Assign entire initial supply to contract owner\n        balances[contractOwner] = total;    \n\n    }\n\n/*@@@@@@@@@@@@@@@@@@@@@@@@@@@@@@@@@@@@@@@@@@@@@@@@@@@@@@@@@@@@@@@@@@@@@@@@@@@@@@@@@@@@@@@@@@*/\n/*@@@@@@@@@@@@@@@@@@@@@@@@@@@@@@@@@@@@@@@ E V E N T S @@@@@@@@@@@@@@@@@@@@@@@@@@@@@@@@@@@@@@*/\n/*@@@@@@@@@@@@@@@@@@@@@@@@@@@@@@@@@@@@@@@@@@@@@@@@@@@@@@@@@@@@@@@@@@@@@@@@@@@@@@@@@@@@@@@@@@*/\n\n\n/*>>>>>>>>>>>>>>>>>>>>>>>>>>>>>> ASSET VALUE TRACKING: TOKEN  <<<<<<<<<<<<<<<<<<<<<<<<<<<<<<*/\n    // Fired when an account authorizes another account to spend tokens on its behalf\n    event Approval          \n                            (\n                                address indexed owner, \n                                address indexed spender, \n                                uint256 value\n                            );\n\n    // Fired when tokens are transferred from one account to another\n    event Transfer          \n                            (\n                                address indexed from, \n                                address indexed to, \n                                uint256 value\n                            );\n\n\n/*@@@@@@@@@@@@@@@@@@@@@@@@@@@@@@@@@@@@@@@@@@@@@@@@@@@@@@@@@@@@@@@@@@@@@@@@@@@@@@@@@@@@@@@@@@*/\n/*@@@@@@@@@@@@@@@@@@@@@@@@@@@@@@@@@@@@ M O D I F I E R S @@@@@@@@@@@@@@@@@@@@@@@@@@@@@@@@@@@*/\n/*@@@@@@@@@@@@@@@@@@@@@@@@@@@@@@@@@@@@@@@@@@@@@@@@@@@@@@@@@@@@@@@@@@@@@@@@@@@@@@@@@@@@@@@@@@*/\n\n\n/*>>>>>>>>>>>>>>>>>>>>>>>>>>> ACCESS CONTROL: ADMINISTRATOR ROLE  <<<<<<<<<<<<<<<<<<<<<<<<<<*/\n    /**\n    * @dev Modifier that requires the function caller to be a contract admin\n    */\n    modifier requireContractAdmin()\n    {\n        require(isContractAdmin(msg.sender), \"Caller is not a contract administrator\");\n        // Modifiers require an \"_\" which indicates where the function body will be added\n        _;\n    }\n\n\n/*@@@@@@@@@@@@@@@@@@@@@@@@@@@@@@@@@@@@@@@@@@@@@@@@@@@@@@@@@@@@@@@@@@@@@@@@@@@@@@@@@@@@@@@@@@*/\n/*@@@@@@@@@@@@@@@@@@@@@@@@@@@@@@@@@@@@@@ F U N C T I O N S @@@@@@@@@@@@@@@@@@@@@@@@@@@@@@@@@*/\n/*@@@@@@@@@@@@@@@@@@@@@@@@@@@@@@@@@@@@@@@@@@@@@@@@@@@@@@@@@@@@@@@@@@@@@@@@@@@@@@@@@@@@@@@@@@*/\n\n\n/*>>>>>>>>>>>>>>>>>>>>>>>>>>> ACCESS CONTROL: ADMINISTRATOR ROLE  <<<<<<<<<<<<<<<<<<<<<<<<<<*/\n    /**\n    * @dev Checks if an account is an admin\n    *\n    * @param account Address of the account to check\n    */\n    function isContractAdmin\n                            (\n                                address account\n                            ) \n                            public \n                            view\n                            returns(bool) \n    {\n        return authorizedAdmins[account] == 1;\n    }\n\n\n    /**\n    * @dev Adds a contract admin\n    *\n    * @param account Address of the admin to add\n    */\n    function addContractAdmin\n                            (\n                                address account\n                            ) \n                            external \n                            requireContractAdmin\n    {\n        require(account != address(0), \"Invalid address\");\n        require(authorizedAdmins[account] < 1, \"Account is already an administrator\");\n\n        authorizedAdmins[account] = 1;\n        authorizedAdminsCount++;\n    }\n\n    /**\n    * @dev Removes a previously added admin\n    *\n    * @param account Address of the admin to remove\n    */\n    function removeContractAdmin\n                            (\n                                address account\n                            ) \n                            external \n                            requireContractAdmin\n    {\n        require(account != address(0), \"Invalid address\");\n        require(authorizedAdminsCount >= 2, \"Cannot remove last admin\");\n\n        delete authorizedAdmins[account];\n        authorizedAdminsCount--;\n    }\n\n    /**\n    * @dev Removes the last admin fully decentralizing the contract\n    *\n    * @param account Address of the admin to remove\n    */\n    function removeLastContractAdmin\n                            (\n                                address account\n                            ) \n                            external \n                            requireContractAdmin\n    {\n        require(account != address(0), \"Invalid address\");\n        require(authorizedAdminsCount == 1, \"Not the last admin\");\n\n        delete authorizedAdmins[account];\n        authorizedAdminsCount--;\n    }\n\n\n/*>>>>>>>>>>>>>>>>>>>>>>>>>>>>>> ASSET VALUE TRACKING: TOKEN  <<<<<<<<<<<<<<<<<<<<<<<<<<<<<<*/\n    /**\n    * @dev Total supply of tokens\n    */\n    function totalSupply() \n                            external \n                            view \n                            returns (uint256) \n    {\n        return total;\n    }\n\n    /**\n    * @dev Gets the balance of the calling address.\n    *\n    * @return An uint256 representing the amount owned by the calling address\n    */\n    function balance()\n                            public \n                            view \n                            returns (uint256) \n    {\n        return balanceOf(msg.sender);\n    }\n\n    /**\n    * @dev Gets the balance of the specified address.\n    *\n    * @param owner The address to query the balance of\n    * @return An uint256 representing the amount owned by the passed address\n    */\n    function balanceOf\n                            (\n                                address owner\n                            ) \n                            public \n                            view \n                            returns (uint256) \n    {\n        return balances[owner];\n    }\n\n    /**\n    * @dev Transfers token for a specified address\n    *\n    * @param to The address to transfer to.\n    * @param value The amount to be transferred.\n    * @return A bool indicating if the transfer was successful.\n    */\n    function transfer\n                            (\n                                address to, \n                                uint256 value\n                            ) \n                            public \n                            returns (bool) \n    {\n        require(to != address(0));\n        require(to != msg.sender);\n        require(value <= balanceOf(msg.sender));                                         \n\n        balances[msg.sender] = balances[msg.sender].sub(value);\n        balances[to] = balances[to].add(value);\n        emit Transfer(msg.sender, to, value);\n        return true;\n    }\n\n    /**\n    * @dev Transfers tokens from one address to another\n    *\n    * @param from address The address which you want to send tokens from\n    * @param to address The address which you want to transfer to\n    * @param value uint256 the amount of tokens to be transferred\n    * @return A bool indicating if the transfer was successful.\n    */\n    function transferFrom\n                            (\n                                address from, \n                                address to, \n                                uint256 value\n                            ) \n                            public \n                            returns (bool) \n    {\n        require(from != address(0));\n        require(value <= allowed[from][msg.sender]);\n        require(value <= balanceOf(from));                                         \n        require(to != address(0));\n        require(from != to);\n\n        balances[from] = balances[from].sub(value);\n        balances[to] = balances[to].add(value);\n        allowed[from][msg.sender] = allowed[from][msg.sender].sub(value);\n        emit Transfer(from, to, value);\n        return true;\n    }\n\n    /**\n    * @dev Checks the amount of tokens that an owner allowed to a spender.\n    *\n    * @param owner address The address which owns the funds.\n    * @param spender address The address which will spend the funds.\n    * @return A uint256 specifying the amount of tokens still available for the spender.\n    */\n    function allowance\n                            (\n                                address owner, \n                                address spender\n                            ) \n                            public \n                            view \n                            returns (uint256) \n    {\n        return allowed[owner][spender];\n    }\n\n    /**\n    * @dev Approves the passed address to spend the specified amount of tokens \n    *      on behalf of msg.sender.\n    *\n    * @param spender The address which will spend the funds.\n    * @param value The amount of tokens to be spent.\n    * @return A bool indicating success (always returns true)\n    */\n    function approve\n                            (\n                                address spender, \n                                uint256 value\n                            ) \n                            public \n                            returns (bool) \n    {\n        allowed[msg.sender][spender] = value;\n        emit Approval(msg.sender, spender, value);\n        return true;\n    }\n\n\n\n//  Example functions that demonstrate how to call into this contract that holds state from\n//  another contract. Look in ~/interfaces/IDappState.sol for the interface definitions and\n//  in Dapp.sol for the actual calls into this contract.\n\n    /**\n    * @dev This is an EXAMPLE function that illustrates how functions in this contract can be\n    *      called securely from another contract to READ state data. Using the Contract Access \n    *      block will enable you to make your contract more secure by restricting which external\n    *      contracts can call functions in this contract.\n    */\n    function getContractOwner()\n                                external\n                                view\n                                override\n                                returns(address)\n    {\n        return contractOwner;\n    }\n\n    uint256 counter;    // This is an example variable used only to demonstrate calling\n                        // a function that writes state from an external contract. It and\n                        // \"incrementCounter\" and \"getCounter\" functions can (should?) be deleted.\n    /**\n    * @dev This is an EXAMPLE function that illustrates how functions in this contract can be\n    *      called securely from another contract to WRITE state data. Using the Contract Access \n    *      block will enable you to make your contract more secure by restricting which external\n    *       contracts can call functions in this contract.\n    */\n    function incrementCounter\n                            (\n                                uint256 increment\n                            )\n                            external\n                            override\n                            // Enable the modifier below if using the Contract Access feature\n                            // requireContractAuthorized\n    {\n        // NOTE: If another contract is calling this function, then msg.sender will be the address\n        //       of the calling contract and NOT the address of the user who initiated the\n        //       transaction. It is possible to get the address of the user, but this is \n        //       spoofable and therefore not recommended.\n        \n        require(increment > 0 && increment < 10, \"Invalid increment value\");\n        counter = counter.add(increment);   // Demonstration of using SafeMath to add to a number\n                                            // While verbose, using SafeMath everywhere that you\n                                            // add/sub/div/mul will ensure your contract does not\n                                            // have weird overflow bugs.\n    }\n\n    /**\n    * @dev This is an another EXAMPLE function that illustrates how functions in this contract can be\n    *      called securely from another contract to READ state data. Using the Contract Access \n    *      block will enable you to make your contract more secure by restricting which external\n    *      contracts can call functions in this contract.\n    */\n    function getCounter()\n                                external\n                                view\n                                override\n                                returns(uint256)\n    {\n        return counter;\n    }\n\n}   \n\n\n",
  "sourcePath": "/Users/nik/Developer/Decentology/DappStarter/vulcan-preview/packages/dapplib/contracts/DappState.sol",
  "compiler": {
    "name": "solc",
    "version": "0.8.19+commit.7dd6d404.Emscripten.clang"
  },
  "schemaVersion": "3.4.13",
  "updatedAt": "2023-05-04T00:13:06.065Z",
  "networkType": "ethereum",
  "devdoc": {
    "kind": "dev",
    "methods": {
      "addContractAdmin(address)": {
        "details": "Adds a contract admin",
        "params": {
          "account": "Address of the admin to add"
        }
      },
      "allowance(address,address)": {
        "details": "Checks the amount of tokens that an owner allowed to a spender.",
        "params": {
          "owner": "address The address which owns the funds.",
          "spender": "address The address which will spend the funds."
        },
        "returns": {
          "_0": "A uint256 specifying the amount of tokens still available for the spender."
        }
      },
      "approve(address,uint256)": {
        "details": "Approves the passed address to spend the specified amount of tokens       on behalf of msg.sender.",
        "params": {
          "spender": "The address which will spend the funds.",
          "value": "The amount of tokens to be spent."
        },
        "returns": {
          "_0": "A bool indicating success (always returns true)"
        }
      },
      "balance()": {
        "details": "Gets the balance of the calling address.",
        "returns": {
          "_0": "An uint256 representing the amount owned by the calling address"
        }
      },
      "balanceOf(address)": {
        "details": "Gets the balance of the specified address.",
        "params": {
          "owner": "The address to query the balance of"
        },
        "returns": {
          "_0": "An uint256 representing the amount owned by the passed address"
        }
      },
      "getContractOwner()": {
        "details": "This is an EXAMPLE function that illustrates how functions in this contract can be      called securely from another contract to READ state data. Using the Contract Access       block will enable you to make your contract more secure by restricting which external      contracts can call functions in this contract."
      },
      "getCounter()": {
        "details": "This is an another EXAMPLE function that illustrates how functions in this contract can be      called securely from another contract to READ state data. Using the Contract Access       block will enable you to make your contract more secure by restricting which external      contracts can call functions in this contract."
      },
      "incrementCounter(uint256)": {
        "details": "This is an EXAMPLE function that illustrates how functions in this contract can be      called securely from another contract to WRITE state data. Using the Contract Access       block will enable you to make your contract more secure by restricting which external       contracts can call functions in this contract."
      },
      "isContractAdmin(address)": {
        "details": "Checks if an account is an admin",
        "params": {
          "account": "Address of the account to check"
        }
      },
      "removeContractAdmin(address)": {
        "details": "Removes a previously added admin",
        "params": {
          "account": "Address of the admin to remove"
        }
      },
      "removeLastContractAdmin(address)": {
        "details": "Removes the last admin fully decentralizing the contract",
        "params": {
          "account": "Address of the admin to remove"
        }
      },
      "totalSupply()": {
        "details": "Total supply of tokens"
      },
      "transfer(address,uint256)": {
        "details": "Transfers token for a specified address",
        "params": {
          "to": "The address to transfer to.",
          "value": "The amount to be transferred."
        },
        "returns": {
          "_0": "A bool indicating if the transfer was successful."
        }
      },
      "transferFrom(address,address,uint256)": {
        "details": "Transfers tokens from one address to another",
        "params": {
          "from": "address The address which you want to send tokens from",
          "to": "address The address which you want to transfer to",
          "value": "uint256 the amount of tokens to be transferred"
        },
        "returns": {
          "_0": "A bool indicating if the transfer was successful."
        }
      }
    },
    "version": 1
  },
  "userdoc": {
    "kind": "user",
    "methods": {},
    "version": 1
  }
}