{
  "contractName": "VulcanCore",
  "abi": [
    {
      "inputs": [],
      "stateMutability": "nonpayable",
      "type": "constructor"
    },
    {
      "inputs": [],
      "name": "BLOCKS_PER_EPOCH",
      "outputs": [
        {
          "internalType": "uint8",
          "name": "",
          "type": "uint8"
        }
      ],
      "stateMutability": "view",
      "type": "function",
      "constant": true
    },
    {
      "inputs": [],
      "name": "FIREPIT_TAX_RATE",
      "outputs": [
        {
          "internalType": "uint16",
          "name": "",
          "type": "uint16"
        }
      ],
      "stateMutability": "view",
      "type": "function",
      "constant": true
    },
    {
      "inputs": [],
      "name": "FLEX_TAX_RATE",
      "outputs": [
        {
          "internalType": "uint16",
          "name": "",
          "type": "uint16"
        }
      ],
      "stateMutability": "view",
      "type": "function",
      "constant": true
    },
    {
      "inputs": [],
      "name": "MAX_EPOCH",
      "outputs": [
        {
          "internalType": "uint32",
          "name": "",
          "type": "uint32"
        }
      ],
      "stateMutability": "view",
      "type": "function",
      "constant": true
    },
    {
      "inputs": [],
      "name": "REBASE_DIVISOR",
      "outputs": [
        {
          "internalType": "uint32",
          "name": "",
          "type": "uint32"
        }
      ],
      "stateMutability": "view",
      "type": "function",
      "constant": true
    },
    {
      "inputs": [],
      "name": "REBASE_VALUE",
      "outputs": [
        {
          "internalType": "uint64",
          "name": "",
          "type": "uint64"
        }
      ],
      "stateMutability": "view",
      "type": "function",
      "constant": true
    },
    {
      "inputs": [],
      "name": "TREASURY_TAX_RATE",
      "outputs": [
        {
          "internalType": "uint16",
          "name": "",
          "type": "uint16"
        }
      ],
      "stateMutability": "view",
      "type": "function",
      "constant": true
    },
    {
      "inputs": [
        {
          "internalType": "uint32",
          "name": "",
          "type": "uint32"
        }
      ],
      "name": "rebaseTable",
      "outputs": [
        {
          "internalType": "uint64",
          "name": "",
          "type": "uint64"
        }
      ],
      "stateMutability": "view",
      "type": "function",
      "constant": true
    },
    {
      "inputs": [],
      "name": "startRebasingBlock",
      "outputs": [
        {
          "internalType": "uint256",
          "name": "",
          "type": "uint256"
        }
      ],
      "stateMutability": "view",
      "type": "function",
      "constant": true
    },
    {
      "inputs": [
        {
          "internalType": "uint256",
          "name": "blockNumber",
          "type": "uint256"
        }
      ],
      "name": "rebaseLookup",
      "outputs": [
        {
          "internalType": "uint64",
          "name": "",
          "type": "uint64"
        }
      ],
      "stateMutability": "view",
      "type": "function",
      "constant": true
    },
    {
      "inputs": [
        {
          "internalType": "uint32",
          "name": "epochNumber",
          "type": "uint32"
        }
      ],
      "name": "rebaseLookupByEpoch",
      "outputs": [
        {
          "internalType": "uint64",
          "name": "",
          "type": "uint64"
        }
      ],
      "stateMutability": "view",
      "type": "function",
      "constant": true
    },
    {
      "inputs": [],
      "name": "rebaseInfo",
      "outputs": [
        {
          "internalType": "uint256",
          "name": "",
          "type": "uint256"
        },
        {
          "internalType": "uint32",
          "name": "",
          "type": "uint32"
        },
        {
          "internalType": "uint64",
          "name": "",
          "type": "uint64"
        }
      ],
      "stateMutability": "view",
      "type": "function",
      "constant": true
    },
    {
      "inputs": [
        {
          "internalType": "uint256",
          "name": "blockNumber",
          "type": "uint256"
        }
      ],
      "name": "epoch",
      "outputs": [
        {
          "internalType": "uint32",
          "name": "",
          "type": "uint32"
        }
      ],
      "stateMutability": "view",
      "type": "function",
      "constant": true
    },
    {
      "inputs": [
        {
          "internalType": "uint256",
          "name": "amount",
          "type": "uint256"
        }
      ],
      "name": "rebase",
      "outputs": [
        {
          "internalType": "uint256",
          "name": "",
          "type": "uint256"
        }
      ],
      "stateMutability": "view",
      "type": "function",
      "constant": true
    },
    {
      "inputs": [
        {
          "internalType": "uint256",
          "name": "amount",
          "type": "uint256"
        }
      ],
      "name": "unrebase",
      "outputs": [
        {
          "internalType": "uint256",
          "name": "",
          "type": "uint256"
        }
      ],
      "stateMutability": "view",
      "type": "function",
      "constant": true
    },
    {
      "inputs": [
        {
          "internalType": "uint256",
          "name": "amount",
          "type": "uint256"
        },
        {
          "internalType": "uint256",
          "name": "blockNumber",
          "type": "uint256"
        }
      ],
      "name": "rebaseAt",
      "outputs": [
        {
          "internalType": "uint256",
          "name": "",
          "type": "uint256"
        }
      ],
      "stateMutability": "view",
      "type": "function",
      "constant": true
    },
    {
      "inputs": [
        {
          "internalType": "uint256",
          "name": "amount",
          "type": "uint256"
        },
        {
          "internalType": "uint256",
          "name": "blockNumber",
          "type": "uint256"
        }
      ],
      "name": "unrebaseAt",
      "outputs": [
        {
          "internalType": "uint256",
          "name": "",
          "type": "uint256"
        }
      ],
      "stateMutability": "view",
      "type": "function",
      "constant": true
    },
    {
      "inputs": [],
      "name": "populateRebaseTable",
      "outputs": [],
      "stateMutability": "nonpayable",
      "type": "function"
    }
  ],
  "bytecode": "0x6080604052600080556000600260006101000a81548163ffffffff021916908363ffffffff1602179055503480156200003757600080fd5b506305f5e100600160008063ffffffff16815260200190815260200160002060006101000a81548167ffffffffffffffff021916908367ffffffffffffffff16021790555043600081905550620000936200009960201b60201c565b62000495565b620b3a6063ffffffff16600260009054906101000a900463ffffffff1663ffffffff1610620000ff576040517f08c379a0000000000000000000000000000000000000000000000000000000008152600401620000f690620002c8565b60405180910390fd5b60005b60c88160ff16101562000264576002600081819054906101000a900463ffffffff1680929190620001339062000329565b91906101000a81548163ffffffff021916908363ffffffff16021790555050620b3a6063ffffffff16600260009054906101000a900463ffffffff1663ffffffff161162000264576305f5e10063ffffffff166305f5e5e8600160006001600260009054906101000a900463ffffffff16620001b091906200035a565b63ffffffff1663ffffffff16815260200190815260200160002060009054906101000a900467ffffffffffffffff16620001eb9190620003ad565b620001f7919062000422565b60016000600260009054906101000a900463ffffffff1663ffffffff1663ffffffff16815260200190815260200160002060006101000a81548167ffffffffffffffff021916908367ffffffffffffffff16021790555080806200025b9062000467565b91505062000102565b50565b600082825260208201905092915050565b7f5461626c6520616c726561647920706f70756c61746564000000000000000000600082015250565b6000620002b060178362000267565b9150620002bd8262000278565b602082019050919050565b60006020820190508181036000830152620002e381620002a1565b9050919050565b7f4e487b7100000000000000000000000000000000000000000000000000000000600052601160045260246000fd5b600063ffffffff82169050919050565b6000620003368262000319565b915063ffffffff82036200034f576200034e620002ea565b5b600182019050919050565b6000620003678262000319565b9150620003748362000319565b9250828203905063ffffffff811115620003935762000392620002ea565b5b92915050565b600067ffffffffffffffff82169050919050565b6000620003ba8262000399565b9150620003c78362000399565b9250828202620003d78162000399565b9150808214620003ec57620003eb620002ea565b5b5092915050565b7f4e487b7100000000000000000000000000000000000000000000000000000000600052601260045260246000fd5b60006200042f8262000399565b91506200043c8362000399565b9250826200044f576200044e620003f3565b5b828204905092915050565b600060ff82169050919050565b600062000474826200045a565b915060ff82036200048a5762000489620002ea565b5b600182019050919050565b610cec80620004a56000396000f3fe608060405234801561001057600080fd5b50600436106101165760003560e01c8063a43f3008116100a2578063bf9559c311610071578063bf9559c31461030f578063cabb7dc61461032d578063d9074bc814610337578063e4b1335814610367578063f94879cf1461039757610116565b8063a43f30081461025f578063aff46ab61461028f578063bc4f2d6d146102af578063bf5da953146102df57610116565b8063390679f1116100e9578063390679f1146101a55780635487c577146101c357806370db144a146101f35780638089e4d1146102115780638f8914791461024157610116565b806318b8e54a1461011b5780631b931229146101395780631f3adc0f14610169578063365462b614610187575b600080fd5b6101236103b5565b60405161013091906107a7565b60405180910390f35b610153600480360381019061014e9190610803565b6103bd565b60405161016091906107a7565b60405180910390f35b6101716103fa565b60405161017e919061084c565b60405180910390f35b61018f6103ff565b60405161019c9190610884565b60405180910390f35b6101ad610405565b6040516101ba91906108b8565b60405180910390f35b6101dd60048036038101906101d891906108ff565b61040b565b6040516101ea919061093b565b60405180910390f35b6101fb610475565b6040516102089190610884565b60405180910390f35b61022b60048036038101906102269190610803565b61047b565b60405161023891906107a7565b60405180910390f35b6102496104a2565b6040516102569190610884565b60405180910390f35b610279600480360381019061027491906108ff565b6104a8565b60405161028691906107a7565b60405180910390f35b610297610506565b6040516102a693929190610956565b60405180910390f35b6102c960048036038101906102c491906108ff565b610529565b6040516102d691906108b8565b60405180910390f35b6102f960048036038101906102f4919061098d565b61053c565b60405161030691906108b8565b60405180910390f35b610317610567565b604051610324919061093b565b60405180910390f35b61033561056e565b005b610351600480360381019061034c91906108ff565b61072c565b60405161035e91906108b8565b60405180910390f35b610381600480360381019061037c919061098d565b61073f565b60405161038e91906108b8565b60405180910390f35b61039f61077c565b6040516103ac919061093b565b60405180910390f35b6305f5e5e881565b6000600160008363ffffffff1663ffffffff16815260200190815260200160002060009054906101000a900467ffffffffffffffff169050919050565b602481565b6103e881565b60005481565b60008054821015610451576040517f08c379a000000000000000000000000000000000000000000000000000000000815260040161044890610a2a565b60405180910390fd5b602460ff16600054836104649190610a79565b61046e9190610adc565b9050919050565b6103e881565b60016020528060005260406000206000915054906101000a900467ffffffffffffffff1681565b610bb881565b600080548210156104ee576040517f08c379a00000000000000000000000000000000000000000000000000000000081526004016104e590610a2a565b60405180910390fd5b6104ff6104fa8361040b565b6103bd565b9050919050565b6000806000436105154361040b565b61051e436104a8565b925092509250909192565b6000610535824361073f565b9050919050565b6000610548838361073f565b6002846105559190610b0d565b61055f9190610a79565b905092915050565b620b3a6081565b620b3a6063ffffffff16600260009054906101000a900463ffffffff1663ffffffff16106105d1576040517f08c379a00000000000000000000000000000000000000000000000000000000081526004016105c890610b9b565b60405180910390fd5b60005b60c88160ff161015610729576002600081819054906101000a900463ffffffff168092919061060290610bbb565b91906101000a81548163ffffffff021916908363ffffffff16021790555050620b3a6063ffffffff16600260009054906101000a900463ffffffff1663ffffffff1611610729576305f5e10063ffffffff166305f5e5e8600160006001600260009054906101000a900463ffffffff1661067c9190610be7565b63ffffffff1663ffffffff16815260200190815260200160002060009054906101000a900467ffffffffffffffff166106b59190610c1f565b6106bf9190610c5c565b60016000600260009054906101000a900463ffffffff1663ffffffff1663ffffffff16815260200190815260200160002060006101000a81548167ffffffffffffffff021916908367ffffffffffffffff160217905550808061072190610c8d565b9150506105d4565b50565b6000610738824361053c565b9050919050565b60006305f5e10063ffffffff16610755836104a8565b67ffffffffffffffff168461076a9190610b0d565b6107749190610adc565b905092915050565b6305f5e10081565b600067ffffffffffffffff82169050919050565b6107a181610784565b82525050565b60006020820190506107bc6000830184610798565b92915050565b600080fd5b600063ffffffff82169050919050565b6107e0816107c7565b81146107eb57600080fd5b50565b6000813590506107fd816107d7565b92915050565b600060208284031215610819576108186107c2565b5b6000610827848285016107ee565b91505092915050565b600060ff82169050919050565b61084681610830565b82525050565b6000602082019050610861600083018461083d565b92915050565b600061ffff82169050919050565b61087e81610867565b82525050565b60006020820190506108996000830184610875565b92915050565b6000819050919050565b6108b28161089f565b82525050565b60006020820190506108cd60008301846108a9565b92915050565b6108dc8161089f565b81146108e757600080fd5b50565b6000813590506108f9816108d3565b92915050565b600060208284031215610915576109146107c2565b5b6000610923848285016108ea565b91505092915050565b610935816107c7565b82525050565b6000602082019050610950600083018461092c565b92915050565b600060608201905061096b60008301866108a9565b610978602083018561092c565b6109856040830184610798565b949350505050565b600080604083850312156109a4576109a36107c2565b5b60006109b2858286016108ea565b92505060206109c3858286016108ea565b9150509250929050565b600082825260208201905092915050565b7f45706f6368206e6f742073746172746564000000000000000000000000000000600082015250565b6000610a146011836109cd565b9150610a1f826109de565b602082019050919050565b60006020820190508181036000830152610a4381610a07565b9050919050565b7f4e487b7100000000000000000000000000000000000000000000000000000000600052601160045260246000fd5b6000610a848261089f565b9150610a8f8361089f565b9250828203905081811115610aa757610aa6610a4a565b5b92915050565b7f4e487b7100000000000000000000000000000000000000000000000000000000600052601260045260246000fd5b6000610ae78261089f565b9150610af28361089f565b925082610b0257610b01610aad565b5b828204905092915050565b6000610b188261089f565b9150610b238361089f565b9250828202610b318161089f565b91508282048414831517610b4857610b47610a4a565b5b5092915050565b7f5461626c6520616c726561647920706f70756c61746564000000000000000000600082015250565b6000610b856017836109cd565b9150610b9082610b4f565b602082019050919050565b60006020820190508181036000830152610bb481610b78565b9050919050565b6000610bc6826107c7565b915063ffffffff8203610bdc57610bdb610a4a565b5b600182019050919050565b6000610bf2826107c7565b9150610bfd836107c7565b9250828203905063ffffffff811115610c1957610c18610a4a565b5b92915050565b6000610c2a82610784565b9150610c3583610784565b9250828202610c4381610784565b9150808214610c5557610c54610a4a565b5b5092915050565b6000610c6782610784565b9150610c7283610784565b925082610c8257610c81610aad565b5b828204905092915050565b6000610c9882610830565b915060ff8203610cab57610caa610a4a565b5b60018201905091905056fea26469706673582212209d1f43067ee616f9f985c202d6faebcca168c5758f6adaa9c8901702f83feb4864736f6c63430008130033",
  "immutableReferences": {},
  "source": "// SPDX-License-Identifier: GPL-3.0\n/*\n\n\n\n\n\n\n\n\n*/\n\npragma solidity >=0.8.0 <0.9.0;\n\n/**\n * @author  Nik Kalyani @techbubble\n * @title   Vulcan Core Preview v0.5\n * @dev     This is the Vulcan Core contract. Its purpose is to give developers an easy, on-chain method\n *          to obtain protocol rebasing information. The contract has a lookup table \"rebaseTable\" that\n *          is a mapping of epoch numbers to the rebasing multiplier value for that epoch. Using this table\n *          developers can build dApps that can either validate or predict what the rebased value of an \n *          amount will be by using any of the helper functions in this contract.\n */\n\ncontract VulcanCore {\n    uint8   public constant BLOCKS_PER_EPOCH = 36; // Set to approximately 3 mins per epoch instead of 180;\n    uint32  public constant MAX_EPOCH = 735840;\n    uint32  public constant REBASE_DIVISOR = 10 ** 8;\n    uint64  public constant REBASE_VALUE = 100001256;\n    uint16  public constant TREASURY_TAX_RATE = 1000;\n    uint16  public constant FLEX_TAX_RATE = 1000;\n    uint16  public constant FIREPIT_TAX_RATE = 3000;\n\n    uint256 public startRebasingBlock = 0;\n\n    mapping(uint32 => uint64) public rebaseTable;\n\n    constructor() {\n        rebaseTable[0] = 100000000;\n        startRebasingBlock = block.number ;\n        populateRebaseTable();\n    }\n\n    /**\n     * @dev     Returns the rebase value for a block number\n     * @param   blockNumber  Block number for which to return rebase value\n     * @return  uint64  Rebase value\n     */\n    function rebaseLookup(uint256 blockNumber) public view returns (uint64) {\n        require(blockNumber >= startRebasingBlock, \"Epoch not started\");\n\n        return rebaseLookupByEpoch(epoch(blockNumber));\n    }\n \n    /**\n     * @dev     Returns the rebase value for an epoch number\n     * @param   epochNumber  Epoch number for which to return rebase value\n     * @return  uint64  Rebase value\n     */\n    function rebaseLookupByEpoch(\n        uint32 epochNumber\n    ) public view returns (uint64) {\n        return rebaseTable[epochNumber];\n    }\n\n    /**\n     * @dev     Returns the current block number, epoch number and rebase value\n     * @return  uint256  Current block number\n     * @return  uint32  Current epoch number\n     * @return  uint64  Current rebase value\n     */\n    function rebaseInfo() public view returns (uint256, uint32, uint64) {\n        return (block.number, epoch(block.number), rebaseLookup(block.number));\n    }\n\n    /**\n     * @dev     Returns the epoch number for any block number\n     * @param   blockNumber  Block number for which to return epoch number\n     * @return  uint32  Epoch number\n     */\n    function epoch(uint256 blockNumber) public view returns (uint32) {\n        require(blockNumber >= startRebasingBlock, \"Epoch not started\");\n\n        return uint32((blockNumber - startRebasingBlock) / BLOCKS_PER_EPOCH);\n    }\n\n    /**\n     * @dev     Returns the rebased value for an amount based on the current epoch\n     *          \n     *          Rebasing an amount is simply multiplying it for with the rebase\n     *          value for the current epoch. How is this rebase value derived?          *          \n     *          \n     *          Vulcan Protocol has an APR of 44% and each epoch is 180 blocks which\n     *          is approximately 15 minutes. Since epochs are block-driven, it's \n     *          immaterial if the block time of approximately 5 seconds changes.\n     *          The formula for calculating the rebase value is the same formula\n     *          used in any financial application to calculate Compound Interest\n     *\n     *          A = P(1 + r)^t\n     *          \n     *          A = Accrued amount (Principal + Interest)\n     *          P = Principal\n     *          r = Rate of interest per period (epoch) in decimal format\n     *              The value of r for Vulcan Protocol is 0.00001256\n     *          t = Number of periods (epochs)\n     *          \n     *          Under the hood, crypto platforms use large integers instead of floating\n     *          point numbers. Since it would be computationally expensive to compute\n     *          the exponent of very large integers, using a lookup table for rebase values\n     *          is more efficient since the values will not change. It has the secondary\n     *          benefit of making it easy for developers to programmatically reference\n     *          the rebase value for any epoch, past of future.\n     *\n     * @param   amount  Balance amount\n     * @return  uint256  Rebased balance amount\n     */\n    function rebase(uint256 amount) public view returns (uint256) {\n        return rebaseAt(amount, block.number);\n    }\n\n    /**\n     * @dev     Returns the unrebased value for \"amount\" at current epoch\n     *          \"unrebased\" means the amount less the value that should be\n     *          deducted to ensure that the increase through rebases in prior\n     *          epochs is not included in amount\n     *\n     * @param   amount  Amount being transferred\n     * @return  uint256  Value that should be stored for amount so that\n     *                   its rebased value returns the correct value\n     */\n    function unrebase(uint256 amount) public view returns (uint256) {\n        return unrebaseAt(amount, block.number);\n    }\n\n    /**\n     * @dev     Returns the rebased value for \"amount\" at an arbitray block number\n     * @param   amount  Balance amount\n     * @param   blockNumber  Block number\n     * @return  uint256  Rebased balance amount\n     */\n    function rebaseAt(\n        uint256 amount,\n        uint256 blockNumber\n    ) public view returns (uint256) {\n        return (amount * rebaseLookup(blockNumber)) / REBASE_DIVISOR;\n    }\n\n    /**\n     * @dev     Returns the unrebased value for \"amount\" at an arbitray block number\n     * @param   amount  Amount being transferred\n     * @param   blockNumber  Block number\n     * @return  uint256  Value that should be stored for amount\n     *                   Since the rebase calculation uses a precision\n     *                   of 8 places after the decimal point and balance\n     *                   use a precision of 18 places after the decimal \n     *                   point, the unrebased value when rebased at the\n     *                   initial epoch will be less by 0.00000001. This\n     *                   difference was determined to be negligible\n     *                   and acceptable for rebasing operations as an\n     *                   unrebased is generally called for a transfer\n     *                   which has also has a tax fee that is included.\n     */\n    function unrebaseAt(\n        uint256 amount,\n        uint256 blockNumber\n    ) public view returns (uint256) {\n        return (amount * 2) - rebaseAt(amount, blockNumber);\n    }\n\n\n    uint32 lastEpoch = 0;   // Track which epoch was last processed\n    /**\n     * @dev     Populate rebase value table for each epoch from genesis to 21 years\n     *          This function is called at blockchain genesis and has no purpose\n     *          after the table is fully hydrated to MAX_EPOCH\n     */\n    function populateRebaseTable() public {\n        require(lastEpoch < MAX_EPOCH, \"Table already populated\");\n\n        for (uint8 i = 0; i < 200; i++) {\n            lastEpoch++;\n            if (lastEpoch > MAX_EPOCH) {\n                break;\n            }\n            rebaseTable[lastEpoch] =\n                (rebaseTable[lastEpoch - 1] * REBASE_VALUE) /\n                REBASE_DIVISOR;\n        }\n    }\n}\n",
  "sourcePath": "/Users/nik/Developer/Decentology/DappStarter/vulcan-preview/packages/dapplib/contracts/VulcanCore.sol",
  "compiler": {
    "name": "solc",
    "version": "0.8.19+commit.7dd6d404.Emscripten.clang"
  },
  "schemaVersion": "3.4.13",
  "updatedAt": "2023-05-04T00:13:06.057Z",
  "networkType": "ethereum",
  "devdoc": {
    "author": "Nik Kalyani @techbubble",
    "details": "This is the Vulcan Core contract. Its purpose is to give developers an easy, on-chain method          to obtain protocol rebasing information. The contract has a lookup table \"rebaseTable\" that          is a mapping of epoch numbers to the rebasing multiplier value for that epoch. Using this table          developers can build dApps that can either validate or predict what the rebased value of an           amount will be by using any of the helper functions in this contract.",
    "kind": "dev",
    "methods": {
      "epoch(uint256)": {
        "details": "Returns the epoch number for any block number",
        "params": {
          "blockNumber": "Block number for which to return epoch number"
        },
        "returns": {
          "_0": "uint32  Epoch number"
        }
      },
      "populateRebaseTable()": {
        "details": "Populate rebase value table for each epoch from genesis to 21 years          This function is called at blockchain genesis and has no purpose          after the table is fully hydrated to MAX_EPOCH"
      },
      "rebase(uint256)": {
        "details": "Returns the rebased value for an amount based on the current epoch                    Rebasing an amount is simply multiplying it for with the rebase          value for the current epoch. How is this rebase value derived?          *                              Vulcan Protocol has an APR of 44% and each epoch is 180 blocks which          is approximately 15 minutes. Since epochs are block-driven, it's           immaterial if the block time of approximately 5 seconds changes.          The formula for calculating the rebase value is the same formula          used in any financial application to calculate Compound Interest          A = P(1 + r)^t                    A = Accrued amount (Principal + Interest)          P = Principal          r = Rate of interest per period (epoch) in decimal format              The value of r for Vulcan Protocol is 0.00001256          t = Number of periods (epochs)                    Under the hood, crypto platforms use large integers instead of floating          point numbers. Since it would be computationally expensive to compute          the exponent of very large integers, using a lookup table for rebase values          is more efficient since the values will not change. It has the secondary          benefit of making it easy for developers to programmatically reference          the rebase value for any epoch, past of future.",
        "params": {
          "amount": "Balance amount"
        },
        "returns": {
          "_0": "uint256  Rebased balance amount"
        }
      },
      "rebaseAt(uint256,uint256)": {
        "details": "Returns the rebased value for \"amount\" at an arbitray block number",
        "params": {
          "amount": "Balance amount",
          "blockNumber": "Block number"
        },
        "returns": {
          "_0": "uint256  Rebased balance amount"
        }
      },
      "rebaseInfo()": {
        "details": "Returns the current block number, epoch number and rebase value",
        "returns": {
          "_0": "uint256  Current block number",
          "_1": "uint32  Current epoch number",
          "_2": "uint64  Current rebase value"
        }
      },
      "rebaseLookup(uint256)": {
        "details": "Returns the rebase value for a block number",
        "params": {
          "blockNumber": "Block number for which to return rebase value"
        },
        "returns": {
          "_0": "uint64  Rebase value"
        }
      },
      "rebaseLookupByEpoch(uint32)": {
        "details": "Returns the rebase value for an epoch number",
        "params": {
          "epochNumber": "Epoch number for which to return rebase value"
        },
        "returns": {
          "_0": "uint64  Rebase value"
        }
      },
      "unrebase(uint256)": {
        "details": "Returns the unrebased value for \"amount\" at current epoch          \"unrebased\" means the amount less the value that should be          deducted to ensure that the increase through rebases in prior          epochs is not included in amount",
        "params": {
          "amount": "Amount being transferred"
        },
        "returns": {
          "_0": "uint256  Value that should be stored for amount so that                   its rebased value returns the correct value"
        }
      },
      "unrebaseAt(uint256,uint256)": {
        "details": "Returns the unrebased value for \"amount\" at an arbitray block number",
        "params": {
          "amount": "Amount being transferred",
          "blockNumber": "Block number"
        },
        "returns": {
          "_0": "uint256  Value that should be stored for amount                   Since the rebase calculation uses a precision                   of 8 places after the decimal point and balance                   use a precision of 18 places after the decimal                    point, the unrebased value when rebased at the                   initial epoch will be less by 0.00000001. This                   difference was determined to be negligible                   and acceptable for rebasing operations as an                   unrebased is generally called for a transfer                   which has also has a tax fee that is included."
        }
      }
    },
    "title": "Vulcan Core Preview v0.5",
    "version": 1
  },
  "userdoc": {
    "kind": "user",
    "methods": {},
    "version": 1
  }
}